:020000040800F2
:100000000000032099170008311700083317000873
:1000100035170008371700083917000800000000DE
:100020000000000000000000000000003B17000876
:100030003D170008000000003F17000841170008A6
:10004000E9170008E9170008E9170008E917000890
:10005000E9170008E9170008E9170008E917000880
:10006000E9170008E9170008E9170008E917000870
:10007000E9170008E9170008E9170008E917000860
:10008000E9170008E9170008E9170008E917000850
:10009000E9170008E9170008E9170008E917000840
:1000A000E9170008E9170008E9170008E917000830
:1000B000E9170008E9170008E9170008E917000820
:1000C000E9170008E9170008E9170008E917000810
:1000D000E9170008E9170008E9170008E917000800
:1000E000E9170008E9170008E9170008E9170008F0
:1000F000E9170008E9170008E9170008E9170008E0
:10010000E9170008E9170008E9170008E9170008CF
:10011000E9170008E9170008E9170008E9170008BF
:10012000E9170008E9170008E9170008E9170008AF
:10013000E9170008E9170008E9170008E91700089F
:10014000E9170008E9170008E9170008E91700088F
:10015000E9170008E9170008E9170008E91700087F
:10016000E9170008E9170008E9170008E91700086F
:10017000E9170008E9170008E91700080000000067
:10018000E9170008E9170008E9170008E91700084F
:10019000E9170008E9170008E9170008E91700083F
:0C01A000E9170008E9170008E91700083B
:1001AC0010B5054C237833B9044B13B10448AFF3A5
:1001BC0000800123237010BD0C0000200000000003
:1001CC003418000808B5034B1BB103490348AFF3BF
:1001DC00008008BD0000000010000020341800084A
:1001EC0053B94AB9002908BF00281CBF4FF0FF3192
:1001FC004FF0FF3000F072B9ADF1080C6DE904CE90
:10020C0000F006F8DDF804E0DDE9022304B07047E5
:10021C002DE9F047089E04468846002B4BD18A42B4
:10022C00154667D9B2FA82F24AB1C2F1200701FA37
:10023C0002F320FA07F7954047EA030894404FEA87
:10024C00154E230CB8FBFEF71FFA85FC0EFB178826
:10025C0043EA084307FB0CF1994209D9EB1807F163
:10026C00FF3080F01B81994240F21881023F2B44F1
:10027C005B1AA4B2B3FBFEF00EFB103344EA03444A
:10028C0000FB0CFCA44509D92C1900F1FF3380F0BC
:10029C000781A44540F2048102382C4440EA07400F
:1002AC00A4EB0C0400271EB1D4400023C6E9004384
:1002BC003946BDE8F0878B4209D9002E00F0EB805F
:1002CC000027C6E9000138463946BDE8F087B3FA85
:1002DC0083F7002F47D18B4202D3824200F2FA807F
:1002EC00841A61EB030301209846002EE0D0C6E986
:1002FC000048DDE702B9FFDEB2FA82F2002A40F0D4
:10030C008F80491B4FEA154E1FFA85F80127B1FB68
:10031C00FEFC230C0EFB1C1143EA014308FB0CF101
:10032C00994207D9EB180CF1FF3002D2994200F236
:10033C00CD808446591AA3B2B1FBFEF00EFB10140B
:10034C0043EA044408FB00F8A04507D92C1900F136
:10035C00FF3302D2A04500F2B6801846A4EB080485
:10036C0040EA0C409FE7C7F1200CBB4022FA0CFE80
:10037C004EEA030E01FA07F420FA0CF521FA0CF3FD
:10038C004FEA1E482543B3FBF8F92C0C08FB193334
:10039C001FFA8EFA44EA034309FB0AF49C4202FA60
:1003AC0007F200FA07F10BD91EEB030309F1FF303A
:1003BC0080F087809C4240F28480A9F1020973444A
:1003CC001B1BADB2B3FBF8F008FB103345EA03443A
:1003DC0000FB0AFAA24508D91EEB040400F1FF3316
:1003EC006BD2A24569D90238744440EA0940A0FB9B
:1003FC000289A4EB0A044C45C2464B4654D351D057
:10040C00002E69D0B1EB0A0564EB030404FA0CFC72
:10041C00FD40FC404CEA0505C6E90054002747E7BF
:10042C00C2F1200320FA03F7954001FA02F021FAF9
:10043C0003F34FEA154E3843010CB3FBFEF71FFADA
:10044C0085F80EFB173341EA034107FB08F38B4297
:10045C0004FA02F407D9691807F1FF3C2FD28B423A
:10046C002DD9023F2944CB1A81B2B3FBFEF00EFB0F
:10047C00103341EA034100FB08F38B4207D969189A
:10048C0000F1FF3C17D28B4215D902382944C91A06
:10049C0040EA07473BE73746304609E70746E7E6B9
:1004AC001846FBE64145ABD2B8EB020A69EB0E02EB
:1004BC0001381346A4E76046E9E7184695E7674616
:1004CC00D1E781467CE702382C4447E7ACF1020CBB
:1004DC002B442FE7384608E73746E9E6704700BF5C
:1004EC0010B504460E4B18784FF47A73B3FBF0F347
:1004FC000C4A1068B0FBF3F000F088F868B90F2CC8
:10050C0001D901200AE0002221464FF0FF3000F013
:10051C0049F8034B5C60002000E0012010BD00BFD7
:10052C00000000200800002008B50B4B1A6842F4AC
:10053C0000721A601A6842F480621A601A6842F4F7
:10054C0080721A60032000F01BF80020FFF7C8FF30
:10055C0001F088F8002008BD003C0240034A1168F5
:10056C00034B1B780B441360704700BF280000201E
:10057C0000000020014B1868704700BF28000020C5
:10058C00074AD36823F4E0631B041B0C000200F43D
:10059C00E060184340F0BF6040F40030D06070471A
:1005AC0000ED00E030B4174BDB68C3F30223C3F15A
:1005BC000704042C28BF04241D1D062D18D9033B49
:1005CC004FF0FF3505FA04F421EA0401994005FACD
:1005DC0003F322EA0303194300280BDB0901C9B218
:1005EC0000F1604000F5614080F8001330BC7047AA
:1005FC000023E5E700F00F000901C9B2024B1954C2
:10060C00F4E700BF00ED00E014ED00E00138B0F1BC
:10061C00807F0AD2064B5860064AF02182F82310DC
:10062C000020986007221A6070470120704700BFB5
:10063C0010E000E000ED00E0042805D0054A136846
:10064C0023F0040313607047024A136843F0040359
:10065C001360704710E000E0704708B5FFF7FCFF2F
:10066C0008BD000000230F2B00F2E380F0B482B031
:10067C0039E0092200E00022B2403A4302346D4EC8
:10068C0046F824206C4A1468EA4302EA04064F68D0
:10069C0017F4803F01D045EA0406674C2660646875
:1006AC0002EA04064F6817F4003F01D045EA04063D
:1006BC00614C6660A46802EA04064F6817F4801F58
:1006CC0001D045EA04065C4CA660E46822404E6802
:1006DC0016F4001F01D045EA0402574CE2600133C6
:1006EC000F2B00F2A38001229A400C6804EA020549
:1006FC00AA42F4D14C68022C01D0122C10D1DE0885
:10070C00083650F826C003F00704A7000F24BC409D
:10071C002CEA040C0C69BC4044EA0C0440F826405A
:10072C0004685F000326BE40F64306EA040C4C68DE
:10073C0004F00304BC4044EA0C0404604C6804F16B
:10074C00FF3CBCF1010F03D9112C01D0122C10D19C
:10075C00846806EA040CCC68BC4044EA0C0484604F
:10076C00446824EA02024C68C4F300149C4014430D
:10077C004460C26816408A68BA403243C2604A6814
:10078C0012F0805FABD0002201922C4A546C44F4DE
:10079C0080445464526C02F480420192019A9C0889
:1007AC00A61C244A52F8267003F0030296000F226E
:1007BC00B24027EA0207224A90423FF45CAF02F5AE
:1007CC008062904222D002F58062904220D002F5E5
:1007DC00806290421ED002F5806290421CD002F5DD
:1007EC00806290421AD002F58062904218D002F5D5
:1007FC008062904216D002F58062904214D002F5CD
:10080C00806290423FF435AF0A2235E7012233E78C
:10081C00022231E703222FE704222DE705222BE7E2
:10082C00062229E7072227E7082225E702B0F0BCB9
:10083C007047704700380140003C014000380240CE
:10084C000000024012B90904816170478161704750
:10085C00436959404161704710B582B00023019340
:10086C00194B1A6C42F080521A641B6C03F08053C3
:10087C000193019B154B01221A60FFF77BFE044686
:10088C00134B5B6813F4803F08D1FFF773FE001B1A
:10089C00B0F57A7FF4D9032002B010BD0D4B0122C4
:1008AC001A60FFF767FE0446094B5B6813F4003FC0
:1008BC0007D1FFF75FFE001BB0F57A7FF4D9032058
:1008CC00EAE70020E8E700BF0038024040000E4293
:1008DC000070004044000E42002800F0BB8170B54F
:1008EC0082B00446036813F0010F3BD0A74B9B6802
:1008FC0003F00C03042B2CD0A44B9B6803F00C03CB
:10090C00082B21D06368B3F5803F4FD0B3F5A02FEF
:10091C0052D09E4B1A6822F480321A601A6822F464
:10092C0080221A606368002B50D0FFF723FE054627
:10093C00964B1B6813F4003F14D1FFF71BFE401BB2
:10094C006428F5D903208AE1904B5B6813F4800F7F
:10095C00D8D08E4B1B6813F4003F03D06368002B78
:10096C0000F07A81236813F0020F55D0874B9B68F7
:10097C0013F00C0F3ED0854B9B6803F00C03082B37
:10098C0033D0E368002B68D0814B01221A60FFF74B
:10099C00F1FD05467D4B1B6813F0020F54D1FFF798
:1009AC00E9FD401B0228F5D9032058E1774A13686A
:1009BC0043F480331360B5E7744B1A6842F4802219
:1009CC001A601A6842F480321A60ABE7FFF7D2FD66
:1009DC0005466E4B1B6813F4003FC3D0FFF7CAFDEE
:1009EC00401B6428F5D9032039E1684B5B6813F48C
:1009FC00800FC6D1654B1B6813F0020F04D0E3685F
:100A0C00012B01D001202AE1604A136823F0F8037E
:100A1C00216943EAC1031360236813F0080F40D027
:100A2C00636963B35B4B01221A60FFF7A3FD0546B4
:100A3C00564B5B6F13F0020F33D1FFF79BFD401B3E
:100A4C000228F5D903200AE1504A136823F0F80371
:100A5C00216943EAC1031360DEE74D4B00221A60A3
:100A6C00FFF788FD0546494B1B6813F0020FD3D0E6
:100A7C00FFF780FD401B0228F5D90320EFE0454B22
:100A8C0000221A60FFF776FD0546404B5B6F13F0B2
:100A9C00020F06D0FFF76EFD401B0228F5D903208C
:100AAC00DDE0236813F0040F79D0384B1B6C13F086
:100ABC00805F33D100230193344B1A6C42F0805287
:100ACC001A641B6C03F080530193019B0125324B7C
:100ADC001B6813F4807F23D0A368012B34D0052B23
:100AEC0038D02A4B1A6F22F001021A671A6F22F0C3
:100AFC0004021A67A368002B36D0FFF73BFD0646AD
:100B0C00224B1B6F13F0020F48D1FFF733FD801BF4
:100B1C0041F288339842F3D90320A0E00025D6E7B0
:100B2C001D4A136843F480731360FFF723FD0646D8
:100B3C00194B1B6813F4807FCED1FFF71BFD801B74
:100B4C000228F5D903208AE0104A136F43F0010301
:100B5C001367CFE70D4B1A6F42F004021A671A6F36
:100B6C0042F001021A67C5E7FFF704FD0646074B82
:100B7C001B6F13F0020F11D0FFF7FCFC801B41F22E
:100B8C0088339842F3D9032069E000BF0038024053
:100B9C0000004742800E474200700040E5B9A3694F
:100BAC00002B5BD0304A926802F00C02082A58D015
:100BBC00022B17D02D4B00221A60FFF7DBFC0446EA
:100BCC00294B1B6813F0007F42D0FFF7D3FC001BAE
:100BDC000228F5D9032042E0234A136C23F08053FA
:100BEC001364DCE7214B00221A60FFF7C3FC0546B7
:100BFC001D4B1B6813F0007F06D0FFF7BBFC401B9E
:100C0C000228F5D903202AE0E369226A1343626AB9
:100C1C0043EA8213A26A5208013A43EA0243E26AA7
:100C2C0043EA0263104A5360104B01221A60FFF72B
:100C3C00A1FC04460C4B1B6813F0007F06D1FFF798
:100C4C0099FC001B0228F5D9032008E0002006E0DF
:100C5C00002004E001207047012000E0002002B0D9
:100C6C0070BD0120FBE700BF003802406000474226
:100C7C00324B9B6803F00C03042B5CD0082B01D087
:100C8C002F4870472DE9F04B2C4B5A6802F03F026D
:100C9C005B6813F4800F2BD0284B5B68C3F388136D
:100CAC001E4600275C010025E41A65EB0705A90127
:100CBC0041EA9461A001001B61EB0501CB0043EA02
:100CCC005073C400A01943EB07014B0243EAD05305
:100CDC004402204619460023FFF782FA174B5B6843
:100CEC00C3F3014301335B00B0FBF3F0BDE8F08BC1
:100CFC00124B5B68C3F388131E4600275C0100256A
:100D0C00E41A65EB0705A90141EA9461A001001BF7
:100D1C0061EB0501CB0043EA5073C400A01943EB0F
:100D2C0007018B0243EA90538402204619460023A4
:100D3C00FFF756FAD2E70348704700BF003802406D
:100D4C000024F40000127A00002800F09D8070B599
:100D5C0004464F4B1B6803F00F038B4209D2CBB2F6
:100D6C004B4A1370136803F00F038B4201D0012020
:100D7C0070BD236813F0020F17D013F0040F04D0CA
:100D8C00444A936843F4E0539360236813F0080FCC
:100D9C0004D0404A936843F4604393603D4A93689F
:100DAC0023F0F003A068034393600D46236813F00F
:100DBC00010F32D06368012B21D09A1E012A25D94C
:100DCC00344A126812F0020F60D032498A6822F05D
:100DDC00030213438B60FFF7CDFB06462D4B9B683C
:100DEC0003F00C036268B3EB820F16D0FFF7C2FB63
:100DFC00801B41F288339842F0D90320B8E7254A8A
:100E0C00126812F4003FE0D10120B1E7214A1268C8
:100E1C0012F0007FD9D10120AAE71D4B1B6803F00B
:100E2C000F03AB4209D9EAB2194B1A701B6803F0D5
:100E3C000F03AB4201D001209AE7236813F0040F93
:100E4C0006D0144A936823F4E053E1680B43936093
:100E5C00236813F0080F07D00E4A936823F46043FD
:100E6C00216943EAC1039360FFF702FF094B9B68BA
:100E7C00C3F30313084AD35CD840084B1860002016
:100E8C00FFF72EFB002073E70120704701206FE76E
:100E9C00003C0240003802404C18000808000020BA
:100EAC00014B1868704700BF0800002070B4036A3B
:100EBC0023F001030362036A4268846924F073041B
:100ECC000D6845EA040623F002048B6823430C4D9D
:100EDC00A84202D00B4CA0420BD123F00803CD68E2
:100EEC002B4323F0040322F440724D6915438A69A5
:100EFC002A43426086614A684263036270BC704751
:100F0C00000001400004014030B4036A23F48073F4
:100F1C000362036A4268C46924F073040D682C43AD
:100F2C0023F400738D6843EA05230E4DA84203D0C9
:100F3C0005F58065A8420ED123F40063CD6843EA21
:100F4C00052323F4806322F440524D6942EA0512D2
:100F5C008D6942EA05124260C4614A68C263036249
:100F6C0030BC70470000014030B4036A23F4805356
:100F7C000362036A4468C26922F4E6420D6842EADD
:100F8C00052223F400538D6843EA0533094DA8422A
:100F9C0003D005F58065A84204D124F480444D6942
:100FAC0044EA85144460C2614A680264036230BC3E
:100FBC00704700BF0000014010B4036A046A24F0BB
:100FCC0001040462846924F0F00444EA021223F060
:100FDC000A030B43826103625DF8044B704710B443
:100FEC00036A23F0100303628469036A24F47044D7
:100FFC0044EA023223F0A00343EA01138261036244
:10100C005DF8044B7047836823F0700341F00701CF
:10101C0019438160704710B4846824F47F4442EA19
:10102C0003230B43234383605DF8044B7047022377
:10103C0080F839300268136843F001031360012310
:10104C0080F8393000207047704790F83830012B09
:10105C007DD010B50446012380F83830022380F887
:10106C0039300268936823F47F4323F0770393604D
:10107C000B68402B57D010D9702B3ED01FD8502B5B
:10108C0047D0602B32D1CA6849680068FFF7A7FFC8
:10109C0060212068FFF7B7FF28E0102B4DD008D94E
:1010AC00202B4FD0302B21D130210068FFF7ABFF24
:1010BC001CE0DBB900210068FFF7A5FF16E0B3F5D3
:1010CC00805F0ED0B3F5005F10D1CB684A68896899
:1010DC000068FFF7A0FF2268936843F48043936095
:1010EC0004E00268936823F007039360012384F8FB
:1010FC003930002084F8380010BDCB684A68896804
:10110C000068FFF788FF2268936843F077039360C9
:10111C00ECE7CA6849680068FFF74EFF5021206869
:10112C00FFF771FFE2E7CA6849680068FFF744FF00
:10113C0040212068FFF767FFD8E710210068FFF710
:10114C0062FFD3E720210068FFF75DFFCEE70220A6
:10115C007047000003682E4A904212D0B0F1804FC5
:10116C000FD0A2F57C4290420BD002F580629042E7
:10117C0007D002F58062904203D002F5784290428B
:10118C0003D123F070034A681343214A90422AD0BA
:10119C00B0F1804F27D0A2F57C42904223D002F5CB
:1011AC00806290421FD002F5806290421BD002F503
:1011BC007842904217D002F57052904213D002F54B
:1011CC00806290420FD002F5806290420BD0A2F563
:1011DC009832904207D002F58062904203D002F51B
:1011EC008062904203D123F44073CA6813430360B6
:1011FC008B68C3620B688362054B984203D003F57E
:10120C008063984201D10B690363012343617047EA
:10121C0000000140A8B110B5044690F839305BB11C
:10122C00022384F83930211D2068FFF793FF012336
:10123C0084F83930002010BD80F8383000F05CFAAA
:10124C00EEE701207047A8B110B5044690F839308C
:10125C005BB1022384F83930211D2068FFF77AFF37
:10126C00012384F83930002010BD80F83830FFF7A6
:10127C00EBFEEEE70120704730B4036A23F0100355
:10128C000362036A4468826922F4E6420D6842EA0A
:10129C00052223F020038D6843EA05130E4DA84266
:1012AC0003D005F58065A8420ED123F08003CD68EC
:1012BC0043EA051323F0400324F440644D6944EAE7
:1012CC0085048D6944EA8504446082614A688263BE
:1012DC00036230BC704700BF0000014090F838300A
:1012EC00012B28D010B50446012380F83830022396
:1012FC0080F839300C2A0BD8DFE802F0070A0A0A0A
:10130C00110A0A0A150A0A0A19000068FFF7CEFD2D
:10131C00012384F83930002084F8380010BD0068AF
:10132C00FFF7AAFFF4E70068FFF7EEFDF0E70068AF
:10133C00FFF71AFEECE70220704710B4012303FA02
:10134C0001F4036A23EA04030362036A8A40134329
:10135C0003625DF8044B704710B504460122006827
:10136C00FFF7EBFF2368094A934203D002F5806232
:10137C00934203D15A6C42F400425A6422681368B7
:10138C0043F001031360002010BD00BF00000140BA
:10139C0090F83830012B22D030B4012280F838205C
:1013AC00022380F839300468636823F070036360AB
:1013BC00046863680D682B4363600468A36823F0BA
:1013CC008003A3600468A36849680B43A36080F89A
:1013DC003920002380F83830184630BC7047022082
:1013EC007047000030B589B000240094184B1A6B7C
:1013FC0042F080021A631A6B02F080020092009A8B
:10140C0001941A6B42F001021A631A6B02F001028A
:10141C000192019A02941A6B42F040021A631B6B00
:10142C0003F040030293029B0A4D22464FF4C04145
:10143C002846FFF707FA4FF4C043039301230493A4
:10144C000594069403A92846FFF70CF909B030BDA2
:10145C000038024000180240FEE7000000B58FB0D3
:10146C0024484FF08043036040F6BB2343600023C5
:10147C0083604FF48042C2600361FFF7CBFE28BB50
:10148C000EA94FF4805341F8103D1A48FFF7DDFDCB
:10149C0000BB1848FFF7D7FE00BB00230893099345
:1014AC0008A91448FFF774FFE0B91023019341F227
:1014BC0055530293002303930593082201A90D4869
:1014CC00FFF70CFF90B90FB05DF804FBDB210A4865
:1014DC00FFF7C2FFE1210848FFF7BEFFE6210648EF
:1014EC00FFF7BAFFED210448FFF7B6FFF6210248DB
:1014FC00FFF7B2FF2C0000206418000800B595B06F
:10150C00002101912E4B1A6C42F080521A641B6C14
:10151C0003F080530193019B02912A4B1A6842F409
:10152C0040421A601B6803F440430293029B012360
:10153C0008934FF48033099302220E924FF48003E8
:10154C000F9304231093B42111911292139308A8B2
:10155C00FFF7C2F938BBFFF77FF940BB0F230393AA
:10156C0002230493002305934FF4A05306934FF4E6
:10157C0080530793052103A8FFF7E6FBD8B9FFF7C3
:10158C008FFC114BA3FB00308009FFF73FF80420C0
:10159C00FFF752F8002211464FF0FF30FFF702F828
:1015AC0015B05DF804FBA8210848FFF755FFAF21E3
:1015BC000648FFF751FFBD210448FFF74DFF00BF60
:1015CC000038024000700040D34D621064180008CF
:1015DC0008B5FEF7A9FFFFF791FFFFF703FFFFF731
:1015EC003DFF1E4C2046FFF722FD08212046FFF749
:1015FC00B3FE1B4D00224FF400512846FFF722F991
:10160C0000224FF480412846FFF71CF92368002282
:10161C005A626FF001021A616FF008021A6105E05C
:10162C000E4B1B681A6912F0080F0ED10B4B1B687E
:10163C001A6912F0010FF3D06FF001021A614FF426
:10164C0080410748FFF704F9EAE76FF008021A61D6
:10165C004FF400510248FFF7FBF8E7E72C0000209D
:10166C000018024010B582B000240094214B5A6C33
:10167C0042F480425A645A6C02F480420092009AFE
:10168C0001941A6C42F080521A641B6C03F0805364
:10169C000193019B0320FEF773FF224621466FF056
:1016AC000B00FEF77FFF224621466FF00A00FEF783
:1016BC0079FF224621466FF00900FEF773FF2246A0
:1016CC0021466FF00400FEF76DFF224621466FF0B5
:1016DC000300FEF767FF224621466FF00100FEF77C
:1016EC0061FF224621464FF0FF30FEF75BFF02B050
:1016FC0010BD00BF003802400368B3F1804F00D02A
:10170C00704782B000230193054B1A6C42F0010222
:10171C001A641B6C03F001030193019B02B0704728
:10172C00003802407047FEE7FEE7FEE7FEE7704731
:10173C007047704708B5FEF711FFFEF78EFF08BD26
:10174C000F49D1F8883043F47003C1F888300D4B41
:10175C001A6842F001021A60002098601A6822F0A0
:10176C00847222F480321A60074A5A601A6822F492
:10177C0080221A60D8604FF000638B60704700BF06
:10178C0000ED00E00038024010300024DFF834D0C7
:10179C00002103E00C4B5B58435004310B480C4BBD
:1017AC0042189A42F6D30B4A02E0002342F8043B5B
:1017BC00094B9A42F9D3FFF7C3FF00F011F8FFF77A
:1017CC0007FF704700000320841800080000002069
:1017DC000C0000200C00002068000020FEE7000038
:1017EC0070B50D4E0D4CA41BA4100025A54209D1BB
:1017FC000B4E0C4C00F018F8A41BA4100025A542AD
:10180C0005D170BD56F8253098470135EEE756F8EE
:10181C00253098470135F2E77C1800087C18000841
:10182C007C18000880180008F8B500BFF8BC08BC8C
:10183C009E467047F8B500BFF8BC08BC9E46704782
:10184C000000000000000000010203040607080964
:10185C0000000000010203042E2E2F5372632F6D23
:08186C0061696E2E63000000AB
:08187400A8E9FF7F010000005C
:04187C00D10100088E
:04188000AD010008AE
:0C18840001000000100000000024F4002F
:04000005080017993F
:00000001FF
